{
  "_format": "hh-sol-artifact-1",
  "contractName": "ClickToken",
  "sourceName": "contracts/ClickToken.sol",
  "abi": [
    {
      "inputs": [],
      "stateMutability": "nonpayable",
      "type": "constructor"
    },
    {
      "inputs": [
        {
          "internalType": "address",
          "name": "spender",
          "type": "address"
        },
        {
          "internalType": "uint256",
          "name": "allowance",
          "type": "uint256"
        },
        {
          "internalType": "uint256",
          "name": "needed",
          "type": "uint256"
        }
      ],
      "name": "ERC20InsufficientAllowance",
      "type": "error"
    },
    {
      "inputs": [
        {
          "internalType": "address",
          "name": "sender",
          "type": "address"
        },
        {
          "internalType": "uint256",
          "name": "balance",
          "type": "uint256"
        },
        {
          "internalType": "uint256",
          "name": "needed",
          "type": "uint256"
        }
      ],
      "name": "ERC20InsufficientBalance",
      "type": "error"
    },
    {
      "inputs": [
        {
          "internalType": "address",
          "name": "approver",
          "type": "address"
        }
      ],
      "name": "ERC20InvalidApprover",
      "type": "error"
    },
    {
      "inputs": [
        {
          "internalType": "address",
          "name": "receiver",
          "type": "address"
        }
      ],
      "name": "ERC20InvalidReceiver",
      "type": "error"
    },
    {
      "inputs": [
        {
          "internalType": "address",
          "name": "sender",
          "type": "address"
        }
      ],
      "name": "ERC20InvalidSender",
      "type": "error"
    },
    {
      "inputs": [
        {
          "internalType": "address",
          "name": "spender",
          "type": "address"
        }
      ],
      "name": "ERC20InvalidSpender",
      "type": "error"
    },
    {
      "inputs": [],
      "name": "EnforcedPause",
      "type": "error"
    },
    {
      "inputs": [
        {
          "internalType": "bytes32",
          "name": "key",
          "type": "bytes32"
        }
      ],
      "name": "EnumerableMapNonexistentKey",
      "type": "error"
    },
    {
      "inputs": [],
      "name": "ExpectedPause",
      "type": "error"
    },
    {
      "inputs": [
        {
          "internalType": "address",
          "name": "owner",
          "type": "address"
        }
      ],
      "name": "OwnableInvalidOwner",
      "type": "error"
    },
    {
      "inputs": [
        {
          "internalType": "address",
          "name": "account",
          "type": "address"
        }
      ],
      "name": "OwnableUnauthorizedAccount",
      "type": "error"
    },
    {
      "anonymous": false,
      "inputs": [
        {
          "indexed": true,
          "internalType": "address",
          "name": "owner",
          "type": "address"
        },
        {
          "indexed": true,
          "internalType": "address",
          "name": "spender",
          "type": "address"
        },
        {
          "indexed": false,
          "internalType": "uint256",
          "name": "value",
          "type": "uint256"
        }
      ],
      "name": "Approval",
      "type": "event"
    },
    {
      "anonymous": false,
      "inputs": [
        {
          "indexed": true,
          "internalType": "address",
          "name": "previousOwner",
          "type": "address"
        },
        {
          "indexed": true,
          "internalType": "address",
          "name": "newOwner",
          "type": "address"
        }
      ],
      "name": "OwnershipTransferred",
      "type": "event"
    },
    {
      "anonymous": false,
      "inputs": [
        {
          "indexed": false,
          "internalType": "address",
          "name": "account",
          "type": "address"
        }
      ],
      "name": "Paused",
      "type": "event"
    },
    {
      "anonymous": false,
      "inputs": [
        {
          "indexed": true,
          "internalType": "address",
          "name": "from",
          "type": "address"
        },
        {
          "indexed": true,
          "internalType": "address",
          "name": "to",
          "type": "address"
        },
        {
          "indexed": false,
          "internalType": "uint256",
          "name": "value",
          "type": "uint256"
        }
      ],
      "name": "Transfer",
      "type": "event"
    },
    {
      "anonymous": false,
      "inputs": [
        {
          "indexed": false,
          "internalType": "address",
          "name": "account",
          "type": "address"
        }
      ],
      "name": "Unpaused",
      "type": "event"
    },
    {
      "inputs": [
        {
          "internalType": "address",
          "name": "owner",
          "type": "address"
        },
        {
          "internalType": "address",
          "name": "spender",
          "type": "address"
        }
      ],
      "name": "allowance",
      "outputs": [
        {
          "internalType": "uint256",
          "name": "",
          "type": "uint256"
        }
      ],
      "stateMutability": "view",
      "type": "function"
    },
    {
      "inputs": [
        {
          "internalType": "address",
          "name": "spender",
          "type": "address"
        },
        {
          "internalType": "uint256",
          "name": "value",
          "type": "uint256"
        }
      ],
      "name": "approve",
      "outputs": [
        {
          "internalType": "bool",
          "name": "",
          "type": "bool"
        }
      ],
      "stateMutability": "nonpayable",
      "type": "function"
    },
    {
      "inputs": [
        {
          "internalType": "address",
          "name": "account",
          "type": "address"
        }
      ],
      "name": "balanceOf",
      "outputs": [
        {
          "internalType": "uint256",
          "name": "",
          "type": "uint256"
        }
      ],
      "stateMutability": "view",
      "type": "function"
    },
    {
      "inputs": [],
      "name": "decimals",
      "outputs": [
        {
          "internalType": "uint8",
          "name": "",
          "type": "uint8"
        }
      ],
      "stateMutability": "view",
      "type": "function"
    },
    {
      "inputs": [],
      "name": "getAllScores",
      "outputs": [
        {
          "components": [
            {
              "internalType": "address",
              "name": "user",
              "type": "address"
            },
            {
              "internalType": "uint256",
              "name": "value",
              "type": "uint256"
            }
          ],
          "internalType": "struct ClickToken.Score[]",
          "name": "",
          "type": "tuple[]"
        }
      ],
      "stateMutability": "view",
      "type": "function"
    },
    {
      "inputs": [
        {
          "internalType": "address",
          "name": "_address",
          "type": "address"
        }
      ],
      "name": "getScore",
      "outputs": [
        {
          "internalType": "uint256",
          "name": "",
          "type": "uint256"
        }
      ],
      "stateMutability": "view",
      "type": "function"
    },
    {
      "inputs": [
        {
          "internalType": "address",
          "name": "_to",
          "type": "address"
        }
      ],
      "name": "mintTo",
      "outputs": [],
      "stateMutability": "nonpayable",
      "type": "function"
    },
    {
      "inputs": [],
      "name": "name",
      "outputs": [
        {
          "internalType": "string",
          "name": "",
          "type": "string"
        }
      ],
      "stateMutability": "view",
      "type": "function"
    },
    {
      "inputs": [],
      "name": "owner",
      "outputs": [
        {
          "internalType": "address",
          "name": "",
          "type": "address"
        }
      ],
      "stateMutability": "view",
      "type": "function"
    },
    {
      "inputs": [],
      "name": "pause",
      "outputs": [],
      "stateMutability": "nonpayable",
      "type": "function"
    },
    {
      "inputs": [],
      "name": "paused",
      "outputs": [
        {
          "internalType": "bool",
          "name": "",
          "type": "bool"
        }
      ],
      "stateMutability": "view",
      "type": "function"
    },
    {
      "inputs": [],
      "name": "renounceOwnership",
      "outputs": [],
      "stateMutability": "nonpayable",
      "type": "function"
    },
    {
      "inputs": [],
      "name": "symbol",
      "outputs": [
        {
          "internalType": "string",
          "name": "",
          "type": "string"
        }
      ],
      "stateMutability": "view",
      "type": "function"
    },
    {
      "inputs": [],
      "name": "totalSupply",
      "outputs": [
        {
          "internalType": "uint256",
          "name": "",
          "type": "uint256"
        }
      ],
      "stateMutability": "view",
      "type": "function"
    },
    {
      "inputs": [
        {
          "internalType": "address",
          "name": "to",
          "type": "address"
        },
        {
          "internalType": "uint256",
          "name": "value",
          "type": "uint256"
        }
      ],
      "name": "transfer",
      "outputs": [
        {
          "internalType": "bool",
          "name": "",
          "type": "bool"
        }
      ],
      "stateMutability": "nonpayable",
      "type": "function"
    },
    {
      "inputs": [
        {
          "internalType": "address",
          "name": "from",
          "type": "address"
        },
        {
          "internalType": "address",
          "name": "to",
          "type": "address"
        },
        {
          "internalType": "uint256",
          "name": "value",
          "type": "uint256"
        }
      ],
      "name": "transferFrom",
      "outputs": [
        {
          "internalType": "bool",
          "name": "",
          "type": "bool"
        }
      ],
      "stateMutability": "nonpayable",
      "type": "function"
    },
    {
      "inputs": [
        {
          "internalType": "address",
          "name": "newOwner",
          "type": "address"
        }
      ],
      "name": "transferOwnership",
      "outputs": [],
      "stateMutability": "nonpayable",
      "type": "function"
    },
    {
      "inputs": [],
      "name": "unpause",
      "outputs": [],
      "stateMutability": "nonpayable",
      "type": "function"
    }
  ],
  "bytecode": "0x608060405234801561001057600080fd5b50336040518060400160405280600a81526020017f436c69636b546f6b656e000000000000000000000000000000000000000000008152506040518060400160405280600381526020017f43544b0000000000000000000000000000000000000000000000000000000000815250816003908161008d9190610458565b50806004908161009d9190610458565b5050506000600560006101000a81548160ff021916908315150217905550600073ffffffffffffffffffffffffffffffffffffffff168173ffffffffffffffffffffffffffffffffffffffff160361012d5760006040517f1e4fbdf7000000000000000000000000000000000000000000000000000000008152600401610124919061056b565b60405180910390fd5b61013c8161014260201b60201c565b50610586565b6000600560019054906101000a900473ffffffffffffffffffffffffffffffffffffffff16905081600560016101000a81548173ffffffffffffffffffffffffffffffffffffffff021916908373ffffffffffffffffffffffffffffffffffffffff1602179055508173ffffffffffffffffffffffffffffffffffffffff168173ffffffffffffffffffffffffffffffffffffffff167f8be0079c531659141344cd1fd0a4f28419497f9722a3daafe3b4186f6b6457e060405160405180910390a35050565b600081519050919050565b7f4e487b7100000000000000000000000000000000000000000000000000000000600052604160045260246000fd5b7f4e487b7100000000000000000000000000000000000000000000000000000000600052602260045260246000fd5b6000600282049050600182168061028957607f821691505b60208210810361029c5761029b610242565b5b50919050565b60008190508160005260206000209050919050565b60006020601f8301049050919050565b600082821b905092915050565b6000600883026103047fffffffffffffffffffffffffffffffffffffffffffffffffffffffffffffffff826102c7565b61030e86836102c7565b95508019841693508086168417925050509392505050565b6000819050919050565b6000819050919050565b600061035561035061034b84610326565b610330565b610326565b9050919050565b6000819050919050565b61036f8361033a565b61038361037b8261035c565b8484546102d4565b825550505050565b600090565b61039861038b565b6103a3818484610366565b505050565b5b818110156103c7576103bc600082610390565b6001810190506103a9565b5050565b601f82111561040c576103dd816102a2565b6103e6846102b7565b810160208510156103f5578190505b610409610401856102b7565b8301826103a8565b50505b505050565b600082821c905092915050565b600061042f60001984600802610411565b1980831691505092915050565b6000610448838361041e565b9150826002028217905092915050565b61046182610208565b67ffffffffffffffff81111561047a57610479610213565b5b6104848254610271565b61048f8282856103cb565b600060209050601f8311600181146104c257600084156104b0578287015190505b6104ba858261043c565b865550610522565b601f1984166104d0866102a2565b60005b828110156104f8578489015182556001820191506020850194506020810190506104d3565b868310156105155784890151610511601f89168261041e565b8355505b6001600288020188555050505b505050505050565b600073ffffffffffffffffffffffffffffffffffffffff82169050919050565b60006105558261052a565b9050919050565b6105658161054a565b82525050565b6000602082019050610580600083018461055c565b92915050565b611b53806105956000396000f3fe608060405234801561001057600080fd5b50600436106101165760003560e01c8063755edd17116100a257806395d89b411161007157806395d89b4114610299578063a9059cbb146102b7578063d47875d0146102e7578063dd62ed3e14610317578063f2fde38b1461034757610116565b8063755edd17146102375780638456cb591461025357806387d061961461025d5780638da5cb5b1461027b57610116565b8063313ce567116100e9578063313ce567146101b75780633f4ba83a146101d55780635c975abb146101df57806370a08231146101fd578063715018a61461022d57610116565b806306fdde031461011b578063095ea7b31461013957806318160ddd1461016957806323b872dd14610187575b600080fd5b610123610363565b60405161013091906115c3565b60405180910390f35b610153600480360381019061014e919061167e565b6103f5565b60405161016091906116d9565b60405180910390f35b610171610418565b60405161017e9190611703565b60405180910390f35b6101a1600480360381019061019c919061171e565b610422565b6040516101ae91906116d9565b60405180910390f35b6101bf610451565b6040516101cc919061178d565b60405180910390f35b6101dd61045a565b005b6101e761046c565b6040516101f491906116d9565b60405180910390f35b610217600480360381019061021291906117a8565b610483565b6040516102249190611703565b60405180910390f35b6102356104cb565b005b610251600480360381019061024c91906117a8565b6104df565b005b61025b6104fc565b005b61026561050e565b60405161027291906118d1565b60405180910390f35b6102836105fd565b6040516102909190611902565b60405180910390f35b6102a1610627565b6040516102ae91906115c3565b60405180910390f35b6102d160048036038101906102cc919061167e565b6106b9565b6040516102de91906116d9565b60405180910390f35b61030160048036038101906102fc91906117a8565b6106dc565b60405161030e9190611703565b60405180910390f35b610331600480360381019061032c919061191d565b61071b565b60405161033e9190611703565b60405180910390f35b610361600480360381019061035c91906117a8565b6107a2565b005b6060600380546103729061198c565b80601f016020809104026020016040519081016040528092919081815260200182805461039e9061198c565b80156103eb5780601f106103c0576101008083540402835291602001916103eb565b820191906000526020600020905b8154815290600101906020018083116103ce57829003601f168201915b5050505050905090565b600080610400610828565b905061040d818585610830565b600191505092915050565b6000600254905090565b60008061042d610828565b905061043a858285610842565b6104458585856108d6565b60019150509392505050565b60006012905090565b6104626109ca565b61046a610a51565b565b6000600560009054906101000a900460ff16905090565b60008060008373ffffffffffffffffffffffffffffffffffffffff1673ffffffffffffffffffffffffffffffffffffffff168152602001908152602001600020549050919050565b6104d36109ca565b6104dd6000610ab4565b565b6104e7610b7a565b6104f981670de0b6b3a7640000610bbb565b50565b6105046109ca565b61050c610c3d565b565b6060600061051c6006610ca0565b905060008167ffffffffffffffff81111561053a576105396119bd565b5b60405190808252806020026020018201604052801561057357816020015b610560611503565b8152602001906001900390816105585790505b50905060005b828110156105f457600080610598836006610cb590919063ffffffff16565b9150915060405180604001604052808373ffffffffffffffffffffffffffffffffffffffff168152602001828152508484815181106105da576105d96119ec565b5b602002602001018190525050508080600101915050610579565b50809250505090565b6000600560019054906101000a900473ffffffffffffffffffffffffffffffffffffffff16905090565b6060600480546106369061198c565b80601f01602080910402602001604051908101604052809291908181526020018280546106629061198c565b80156106af5780601f10610684576101008083540402835291602001916106af565b820191906000526020600020905b81548152906001019060200180831161069257829003601f168201915b5050505050905090565b6000806106c4610828565b90506106d18185856108d6565b600191505092915050565b60006106f2826006610ce190919063ffffffff16565b6106ff5760009050610716565b610713826006610d1190919063ffffffff16565b90505b919050565b6000600160008473ffffffffffffffffffffffffffffffffffffffff1673ffffffffffffffffffffffffffffffffffffffff16815260200190815260200160002060008373ffffffffffffffffffffffffffffffffffffffff1673ffffffffffffffffffffffffffffffffffffffff16815260200190815260200160002054905092915050565b6107aa6109ca565b600073ffffffffffffffffffffffffffffffffffffffff168173ffffffffffffffffffffffffffffffffffffffff160361081c5760006040517f1e4fbdf70000000000000000000000000000000000000000000000000000000081526004016108139190611902565b60405180910390fd5b61082581610ab4565b50565b600033905090565b61083d8383836001610d44565b505050565b600061084e848461071b565b90507fffffffffffffffffffffffffffffffffffffffffffffffffffffffffffffffff81146108d057818110156108c0578281836040517ffb8f41b20000000000000000000000000000000000000000000000000000000081526004016108b793929190611a1b565b60405180910390fd5b6108cf84848484036000610d44565b5b50505050565b600073ffffffffffffffffffffffffffffffffffffffff168373ffffffffffffffffffffffffffffffffffffffff16036109485760006040517f96c6fd1e00000000000000000000000000000000000000000000000000000000815260040161093f9190611902565b60405180910390fd5b600073ffffffffffffffffffffffffffffffffffffffff168273ffffffffffffffffffffffffffffffffffffffff16036109ba5760006040517fec442f050000000000000000000000000000000000000000000000000000000081526004016109b19190611902565b60405180910390fd5b6109c5838383610f1b565b505050565b6109d2610828565b73ffffffffffffffffffffffffffffffffffffffff166109f06105fd565b73ffffffffffffffffffffffffffffffffffffffff1614610a4f57610a13610828565b6040517f118cdaa7000000000000000000000000000000000000000000000000000000008152600401610a469190611902565b60405180910390fd5b565b610a59610ff8565b6000600560006101000a81548160ff0219169083151502179055507f5db9ee0a495bf2e6ff9c91a7834c1ba4fdd244a5e8aa4e537bd38aeae4b073aa610a9d610828565b604051610aaa9190611902565b60405180910390a1565b6000600560019054906101000a900473ffffffffffffffffffffffffffffffffffffffff16905081600560016101000a81548173ffffffffffffffffffffffffffffffffffffffff021916908373ffffffffffffffffffffffffffffffffffffffff1602179055508173ffffffffffffffffffffffffffffffffffffffff168173ffffffffffffffffffffffffffffffffffffffff167f8be0079c531659141344cd1fd0a4f28419497f9722a3daafe3b4186f6b6457e060405160405180910390a35050565b610b8261046c565b15610bb9576040517fd93c066500000000000000000000000000000000000000000000000000000000815260040160405180910390fd5b565b600073ffffffffffffffffffffffffffffffffffffffff168273ffffffffffffffffffffffffffffffffffffffff1603610c2d5760006040517fec442f05000000000000000000000000000000000000000000000000000000008152600401610c249190611902565b60405180910390fd5b610c3960008383610f1b565b5050565b610c45610b7a565b6001600560006101000a81548160ff0219169083151502179055507f62e78cea01bee320cd4e420270b5ea74000d11b0c9f74754ebdbfc544b05a258610c89610828565b604051610c969190611902565b60405180910390a1565b6000610cae82600001611038565b9050919050565b600080600080610cc8866000018661104d565b915091508160001c8160001c9350935050509250929050565b6000610d09836000018373ffffffffffffffffffffffffffffffffffffffff1660001b61108d565b905092915050565b6000610d39836000018373ffffffffffffffffffffffffffffffffffffffff1660001b6110ad565b60001c905092915050565b600073ffffffffffffffffffffffffffffffffffffffff168473ffffffffffffffffffffffffffffffffffffffff1603610db65760006040517fe602df05000000000000000000000000000000000000000000000000000000008152600401610dad9190611902565b60405180910390fd5b600073ffffffffffffffffffffffffffffffffffffffff168373ffffffffffffffffffffffffffffffffffffffff1603610e285760006040517f94280d62000000000000000000000000000000000000000000000000000000008152600401610e1f9190611902565b60405180910390fd5b81600160008673ffffffffffffffffffffffffffffffffffffffff1673ffffffffffffffffffffffffffffffffffffffff16815260200190815260200160002060008573ffffffffffffffffffffffffffffffffffffffff1673ffffffffffffffffffffffffffffffffffffffff168152602001908152602001600020819055508015610f15578273ffffffffffffffffffffffffffffffffffffffff168473ffffffffffffffffffffffffffffffffffffffff167f8c5be1e5ebec7d5bd14f71427d1e84f3dd0314c0f7b2291e5b200ac8c7c3b92584604051610f0c9190611703565b60405180910390a35b50505050565b610f23610b7a565b600073ffffffffffffffffffffffffffffffffffffffff168373ffffffffffffffffffffffffffffffffffffffff1614610f93576000610f6d846006610d1190919063ffffffff16565b9050610f90848383610f7f9190611a81565b600661112d9092919063ffffffff16565b50505b6000610fa9836006610ce190919063ffffffff16565b15610fc557610fc2836006610d1190919063ffffffff16565b90505b610fe6838383610fd59190611ab5565b600661112d9092919063ffffffff16565b50610ff2848484611162565b50505050565b61100061046c565b611036576040517f8dfc202b00000000000000000000000000000000000000000000000000000000815260040160405180910390fd5b565b60006110468260000161117a565b9050919050565b6000806000611068848660000161118f90919063ffffffff16565b9050808560020160008381526020019081526020016000205492509250509250929050565b60006110a582846000016111a690919063ffffffff16565b905092915050565b6000808360020160008481526020019081526020016000205490506000801b811480156110e157506110df848461108d565b155b1561112357826040517f02b5668600000000000000000000000000000000000000000000000000000000815260040161111a9190611b02565b60405180910390fd5b8091505092915050565b6000611159846000018473ffffffffffffffffffffffffffffffffffffffff1660001b8460001b6111bd565b90509392505050565b61116a610b7a565b6111758383836111f8565b505050565b60006111888260000161141d565b9050919050565b600061119e836000018361142e565b905092915050565b60006111b58360000183611459565b905092915050565b600081846002016000858152602001908152602001600020819055506111ef838560000161147c90919063ffffffff16565b90509392505050565b600073ffffffffffffffffffffffffffffffffffffffff168373ffffffffffffffffffffffffffffffffffffffff160361124a57806002600082825461123e9190611ab5565b9250508190555061131d565b60008060008573ffffffffffffffffffffffffffffffffffffffff1673ffffffffffffffffffffffffffffffffffffffff168152602001908152602001600020549050818110156112d6578381836040517fe450d38c0000000000000000000000000000000000000000000000000000000081526004016112cd93929190611a1b565b60405180910390fd5b8181036000808673ffffffffffffffffffffffffffffffffffffffff1673ffffffffffffffffffffffffffffffffffffffff16815260200190815260200160002081905550505b600073ffffffffffffffffffffffffffffffffffffffff168273ffffffffffffffffffffffffffffffffffffffff160361136657806002600082825403925050819055506113b3565b806000808473ffffffffffffffffffffffffffffffffffffffff1673ffffffffffffffffffffffffffffffffffffffff168152602001908152602001600020600082825401925050819055505b8173ffffffffffffffffffffffffffffffffffffffff168373ffffffffffffffffffffffffffffffffffffffff167fddf252ad1be2c89b69c2b068fc378daa952ba7f163c4a11628f55a4df523b3ef836040516114109190611703565b60405180910390a3505050565b600081600001805490509050919050565b6000826000018281548110611446576114456119ec565b5b9060005260206000200154905092915050565b600080836001016000848152602001908152602001600020541415905092915050565b600061148b8360000183611493565b905092915050565b600061149f8383611459565b6114f85782600001829080600181540180825580915050600190039060005260206000200160009091909190915055826000018054905083600101600084815260200190815260200160002081905550600190506114fd565b600090505b92915050565b6040518060400160405280600073ffffffffffffffffffffffffffffffffffffffff168152602001600081525090565b600081519050919050565b600082825260208201905092915050565b60005b8381101561156d578082015181840152602081019050611552565b60008484015250505050565b6000601f19601f8301169050919050565b600061159582611533565b61159f818561153e565b93506115af81856020860161154f565b6115b881611579565b840191505092915050565b600060208201905081810360008301526115dd818461158a565b905092915050565b600080fd5b600073ffffffffffffffffffffffffffffffffffffffff82169050919050565b6000611615826115ea565b9050919050565b6116258161160a565b811461163057600080fd5b50565b6000813590506116428161161c565b92915050565b6000819050919050565b61165b81611648565b811461166657600080fd5b50565b60008135905061167881611652565b92915050565b60008060408385031215611695576116946115e5565b5b60006116a385828601611633565b92505060206116b485828601611669565b9150509250929050565b60008115159050919050565b6116d3816116be565b82525050565b60006020820190506116ee60008301846116ca565b92915050565b6116fd81611648565b82525050565b600060208201905061171860008301846116f4565b92915050565b600080600060608486031215611737576117366115e5565b5b600061174586828701611633565b935050602061175686828701611633565b925050604061176786828701611669565b9150509250925092565b600060ff82169050919050565b61178781611771565b82525050565b60006020820190506117a2600083018461177e565b92915050565b6000602082840312156117be576117bd6115e5565b5b60006117cc84828501611633565b91505092915050565b600081519050919050565b600082825260208201905092915050565b6000819050602082019050919050565b61180a8161160a565b82525050565b61181981611648565b82525050565b6040820160008201516118356000850182611801565b5060208201516118486020850182611810565b50505050565b600061185a838361181f565b60408301905092915050565b6000602082019050919050565b600061187e826117d5565b61188881856117e0565b9350611893836117f1565b8060005b838110156118c45781516118ab888261184e565b97506118b683611866565b925050600181019050611897565b5085935050505092915050565b600060208201905081810360008301526118eb8184611873565b905092915050565b6118fc8161160a565b82525050565b600060208201905061191760008301846118f3565b92915050565b60008060408385031215611934576119336115e5565b5b600061194285828601611633565b925050602061195385828601611633565b9150509250929050565b7f4e487b7100000000000000000000000000000000000000000000000000000000600052602260045260246000fd5b600060028204905060018216806119a457607f821691505b6020821081036119b7576119b661195d565b5b50919050565b7f4e487b7100000000000000000000000000000000000000000000000000000000600052604160045260246000fd5b7f4e487b7100000000000000000000000000000000000000000000000000000000600052603260045260246000fd5b6000606082019050611a3060008301866118f3565b611a3d60208301856116f4565b611a4a60408301846116f4565b949350505050565b7f4e487b7100000000000000000000000000000000000000000000000000000000600052601160045260246000fd5b6000611a8c82611648565b9150611a9783611648565b9250828203905081811115611aaf57611aae611a52565b5b92915050565b6000611ac082611648565b9150611acb83611648565b9250828201905080821115611ae357611ae2611a52565b5b92915050565b6000819050919050565b611afc81611ae9565b82525050565b6000602082019050611b176000830184611af3565b9291505056fea26469706673582212203fe98838fb5748358fa8e3c534e60e82b0806b38997133b52c35430856e46e0264736f6c634300081b0033",
  "linkReferences": {},
  "deployedLinkReferences": {}
}